:020000040000FA
:100000000A128A11EE2FFF0000308A007F08820753
:1000100008280A128A11A22D0A128A11572D0A12D3
:100020008A11262F0A128A11FA2D0A128A11D42E49
:100030000A128A11272E00308A000408840A8207D7
:10004000003404340A3404340034003400340034FE
:0200500000347A
:1009C800F000831203178F0170088D008316031738
:1009D8008C130C14831203170C0808007108F30019
:1009E8007008F200F20EF30EF030F30572080F39BA
:1009F800F304F030F2057208F0007308F100080003
:100A0800F5007508F40006300310F40DFF3E031DD1
:100A1800082D730874077F39803E0A128A117A27D5
:100A28000A128A1108007E088A007F0882000A12CA
:100A38008A1117250A128A118000840A04087D0683
:100A480003190034FF0A0319FE0A1B2D382DC7307D
:100A5800F2002E2DF20B2D2D312D322D0130F0020A
:100A68000030031CF103F10270087104031D3D2DD1
:100A78003E2D2B2D0800F1008B13710883120317EC
:100A88008D0070088C00831603178C130C155530D5
:100A98008D00AA308D008C148C18532D542D502D98
:100AA8000C118B1708007708F9007908F30076080D
:100AB8000A128A1104250A128A116E2D78088400F8
:100AC80000080A128A1177250A128A110130F900E2
:100AD8007908F8077808840083130008031D752D2A
:100AE800762D622D0800F100831203130816710891
:100AF800F00004300310F00CFF3E031D7E2D0808A3
:100B08007006F0397006880088120D30F000F00B7E
:100B18008B2D83120313881608160F307105F00009
:100B280008087006F0397006880088120D30F00049
:100B3800F00B9C2D83120313881608007408F60026
:100B4800F7017608F0007708F1000A128A11F224FA
:100B58000A128A117108F9007008F800FA01780879
:100B68007A070A128A11E4240A128A11F6007A080E
:100B78007507F70077088400760883138000013032
:100B8800F6007608FA0710307A02031CCC2DCD2D1A
:100B9800B32D080007340A34043400340034003418
:100BA80000341034013400340D340034203420343F
:100BB800203420342034203420342034203420348D
:100BC8002034203420342034203420345434453424
:100BD80053345434453420342D342034543445347B
:100BE80053345434453420342D342034F301003048
:100BF8000A128A1104250A128A111E2E7608840008
:100C08000A300006031D092E0A2E112EF3010130A9
:100C18000A128A1104250A128A117608840083139D
:100C280000080A128A1177250A128A110130F70082
:100C38007708F6077608840083130008031D252E1D
:100C4800262E022E08007408F600F7017608F00038
:100C58007708F1000A128A11F2240A128A1171081F
:100C6800F9007008F800FA017A087507F6007608A6
:100C7800840083130008F7007708F00078087A07E3
:100C88000A128A113F250A128A110130F6007608E5
:100C9800FA0710307A02031C522E532E382E080001
:100CA800F5007508F40002300310F40DFF3E031D33
:100CB800582E0310740D3F39403E0A128A117A27C4
:100CC8000A128A11F6017608730784000A128A113B
:100CD8001B200A128A110A128A1177250A128A1110
:100CE8000130F4007408F60708307602031C7D2EE4
:100CF8007E2E672E01300A128A117A270A128A116B
:100D080008008312031320080A128A1103200A120A
:100D18008A11F401F40A3C30FB007B08F5008312C9
:100D2800031327080A128A1103200A128A11F401F0
:100D3800F40A3C30FB007B08F500831203132808F3
:100D48000A128A1103200A128A113C30FB007B0820
:100D5800F6008312031321080A128A1103200A12CB
:100D68008A112C30FB007B08F400831203132A0835
:100D78000A128A1103200A128A11F601F60AF701EB
:100D88002C30FB007B08F8008312031322080A1298
:100D98008A1103200A128A11D02E0A128A110028F9
:100DA800F901FA017A08F1007908F0000A128A11AB
:100DB800F2240A128A117108F8007008F7007708FF
:100DC8000A128A11E4240A128A11003A031DED2E30
:100DD800EE2E122F7A08803AFF0080307F02031D22
:100DE800F72E0A3079020318FA2EFB2E072F7908FE
:100DF800303EF50079087407F60076088400750817
:100E080083138000122F7908373EF500790874079C
:100E1800F600760884007508831380000130F9070E
:100E28000318FA0A0030FA077A08803AFF0080307F
:100E38007F02031D212F10307902031C242F252F38
:100E4800D62E08006430F0000030F1000A128A1132
:100E58002A250A128A11831603130810881008110C
:100E6800881108128812081788176430F0000030BB
:100E7800F1000A128A112A250A128A118312031311
:100E8800881628300A128A117A270A128A110C3019
:100E98000A128A117A270A128A1101300A128A1153
:100EA8007A270A128A1102300A128A117A270A123C
:100EB8008A116430F0000030F1000A128A112A25E4
:100EC8000A128A110130F7007708F30001300A127C
:100ED8008A1154260A128A116430F0000030F10099
:100EE8000A128A112A250A128A110800F2008312AE
:100EF800031308127208F00004300310F00CFF3ED0
:100F0800031D812F08087006F039700688008812C2
:100F180072030319902F912F972F02307206031D29
:100F2800962F972FA12F0330F1009730F000F00B88
:100F38009B2FF10B9B2FA02FA52F0D30F000F00B4E
:100F4800A32F831203138816F0307205F0002030A7
:100F58007006031DB02FB12FC72F08127208F000BA
:100F680004300310F00CFF3E031DB52F080870066F
:100F7800F0397006880088120D30F000F00BC22F8F
:100F880083120313881608120F307205F000080840
:100F98007006F03970068800881272030319D52F7D
:100FA800D62FDC2F02307206031DDB2FDC2FE62F35
:100FB8000330F1009730F000F00BE02FF10BE02F39
:100FC800E52FEA2F0D30F000F00BE82F8312031302
:100FD8008816080083134C30FD000530FE00CE3023
:100FE800FF00203084000A128A111B250A128A1178
:080FF80083010A128A11852E03
:04400E00D420FF3F7C
:00000001FF
